:100000000C9405030C94D3190C94AC190C942D0387
:100010000C942D030C942D030C9426190C94FA19AE
:100020000C942D030C942D030C942D030C942D0390
:100030000C942D030C942D030C942D030C942D0380
:100040000C9462190C942D030C94E50F0C94BF0FC3
:100050000C942D030C942D030C942D030C942D0360
:100060000C942D030C942D0300407A10F35A00A039
:10007000724E18090010A5D4E80000E87648170071
:1000800000E40B54020000CA9A3B000000E1F505B1
:10009000000080969800000040420F000000A086FB
:1000A00001000000102700000000E803000000002D
:1000B0006400000000000A000000000001000000D1
:1000C00000002C76D888DC674F0823DFC1DFAE59EB
:1000D000E1B1B796E5E3E453C63AE651997696E87E
:1000E000E6C28426EB898C9B62ED407C6FFCEFBC02
:1000F0009C9F40F2BAA56FA5F490055A2AF75C932D
:100100006B6CF9676DC11BFCE0E40D47FEF520E662
:10011000B500D0ED902E0300943577050080841E45
:10012000080000204E0A000000C80C333333330FA0
:10013000986E12831141EF8D2114893BE65516CF3D
:10014000FEE6DB18D1844B381BF77C1D901DA4BB49
:10015000E424203284725E228100C9F124ECA1E5FE
:100160003D2700000000240027002A0000000000B6
:10017000250028002B0004040404040404040202E3
:100180000202020203030303030301020408102016
:100190004080010204081020010204081020000021
:1001A0000008000201000003040700000000000036
:1001B0000000214D434F3A534E443A4E4F444520A0
:1001C0004E4F54205245470A0054534D3A52454130
:1001D00044593A49443D25752C5041523D25752CD2
:1001E0004449533D25750A002154534D3A52454127
:1001F00044593A55504C204641494C2C534E500AD4
:10020000005453463A5444493A54534C0A00545308
:100210004D3A4641494C3A4449530A0054534D3AE9
:100220004641494C3A434E543D25750A0054534DBE
:100230003A4641494C3A52452D494E49540A0054D8
:1002400053463A5349443A4F4B2C49443D25750A8D
:1002500000215453463A5349443A4641494C2C49AB
:10026000443D25750A0025735453463A4D53473A89
:1002700053454E442C25752D25752D25752D257539
:100280002C733D25752C633D25752C743D25752CEF
:1002900070743D25752C6C3D25752C73673D257557
:1002A0002C66743D25752C73743D25733A25730AAD
:1002B00000215453463A5254453A46504152204147
:1002C00043544956450A00215453463A534E443A42
:1002D000544E520A004D434F3A5245473A52455107
:1002E0000A00200054534D3A494E49540A00215403
:1002F000534D3A494E49543A545350204641494C83
:100300000A0054534D3A494E49543A545350204FE1
:100310004B0A0054534D3A465041520A002154535F
:100320004D3A465041523A4E4F205245504C590A90
:10033000002154534D3A465041523A4641494C0AE5
:100340000054534D3A465041523A4F4B0A005453D1
:100350004D3A49443A5245510A0054534D3A4944A2
:100360000A002154534D3A49443A4641494C0A0047
:1003700054534D3A49443A4F4B0A0054534D3A5561
:10038000504C0A002154534D3A55504C3A4641497D
:100390004C0A0054534D3A55504C3A444757432C5D
:1003A0004F3D25752C4E3D25750A0054534D3A5549
:1003B000504C3A4F4B0A004D434F3A50494D3A4E3C
:1003C0004F4445205245473D25750A002154534668
:1003D0003A4D53473A52454C204D53472C4E5245C7
:1003E000500A005453463A4D53473A42430A005488
:1003F00053463A4D53473A41434B0A002154534622
:100400003A4D53473A504F4E4720524543562C4998
:100410004E4143544956450A005453463A4D5347BA
:100420003A504F4E4720524543562C48503D257573
:100430000A005453463A4D53473A50494E474544B3
:100440002C49443D25752C48503D25750A00215402
:1004500053463A4D53473A4650415220494E414344
:10046000544956450A005453463A4D53473A46506C
:100470004152204F4B2C49443D25752C443D257558
:100480000A00215453463A4D53473A494420544BAD
:1004900020494E56414C49440A005453463A4D5364
:1004A000473A41434B205245510A00215453463AA2
:1004B0004D53473A505645522C2575213D25750A16
:1004C00000215453463A4D53473A4C454E2C25751E
:1004D000213D25750A005453463A4D53473A52453B
:1004E00041442C25752D25752D25752C733D2575BD
:1004F0002C633D25752C743D25752C70743D257538
:100500002C6C3D25752C73673D25753A25730A00C3
:1005100000000000230026002900322E332E300A6E
:1005200000207C5F5C2F602C0A0702200220B2872B
:1005300010034001200024022210022202022002A5
:100540002200222002022022271013410101010370
:100550002220304020305203402214020310522443
:100560000221710100101012101222101002240139
:100570000103220300200101003220371210012163
:100580003226012840322212101212224322241253
:100590001001222470C122240F0F5453463A57559C
:1005A000523A4D533D256C750A004D434F3A424730
:1005B0004E3A494E4954204F4B2C5453503D2575CB
:1005C0000A004D434F3A42474E3A5354500A004DA9
:1005D000434F3A42474E3A4246520A004D434F3A41
:1005E00042474E3A494E4954204E4F44452C4350C1
:1005F0003D524E4E4E412D2D2D2C5645523D322E04
:10060000332E300A0000901F0D2011241FBECFEFA3
:10061000D8E0DEBFCDBF12E0A0E0B1E0E2EBFBE549
:1006200002C005900D92A63FB107D9F725E0A6EFCD
:10063000B2E001C01D92A73FB207E1F713E0C4E0AA
:10064000D3E004C02197FE010E94BA2CC330D10729
:10065000C9F70E9419200C94CC2D0C9400002F9205
:100660003F924F925F926F927F928F929F92AF9242
:10067000BF92CF92DF92EF92FF920F931F93CF938F
:10068000DF93CDB7DEB7A9970FB6F894DEBF0FBEE4
:10069000CDBFA8950E9456196B017C018CEF93E0A9
:1006A00090931A03809319038091F90390E090933B
:1006B0001C0380931B038091C60490E090931E035B
:1006C00080931D038091F503853009F04DC780911B
:1006D000FE039091FF03885891098D35910588F4A8
:1006E0008091F903843041F48091000490910104D9
:1006F0008097479708F426C18091F903843408F065
:100700005CC08091F9038A3108F497C18091FC03A1
:100710009091FD03843F914090F410921803109241
:1007200017038FEF9FEFDC01809313039093140363
:10073000A0931503B09316038BE090E01CC1809149
:10074000FE039091FF0385974B9708F076C1E2E096
:10075000F4E082E090E040E050E0BA018C010F5FED
:100760001F4F2091F90330E0021713076CF49F012B
:1007700022503109D9012D913C9127503109273060
:10078000310508F43FC1C80101979595879590936D
:100790001803809317030C972CF4109218031092EF
:1007A00017034BC140931303509314036093150335
:1007B0007093160384E090E03EC080910004909115
:1007C0000104825491098E9708F09BCF20E030E01D
:1007D00080E090E0DC01F901EE5FFB4F4081518148
:1007E000495051094930510508F08BCFF901EC5FB0
:1007F000FB4F40815181475151094231510508F069
:10080000F4C0880F991FAA1FBB1F81602C5F3F4F48
:100810002038310501F720E230E0309318032093AF
:1008200017038093130390931403A0931503B093BD
:10083000160383E090E09093100380930F03809061
:10084000130390901403A0901503B090160382E058
:100850008093F5031092F903FFE38F16F0EC9F06E7
:10086000F7EFAF06B10409F449C010F53FEB83166A
:1008700030E4930637EFA306B104E1F14FE78416A5
:1008800040E8940647EFA406B10409F445C05FEFC1
:100890008516910457EFA506B10409F07DC080913B
:1008A0001E01082E000C990B41E061E005963CC04A
:1008B0008FE2881680ED980687EFA806B10421F133
:1008C00097E1891698EE990697EFA906B10479F198
:1008D000A7E38A16A8EC9A06A7EFAA06B10409F0C6
:1008E0005BC08091290190912A0141E061E08C591F
:1008F0009F4F25C041E061E080E003C041E061E03E
:1009000081E00E944B1F57C78091280141E061E0C0
:100910008F5F0E94191F4FC780911E01082E000C87
:10092000990B41E061E005970E94CC1E44C780917D
:10093000290190912A0141E061E0845691090E94C9
:100940008A1E39C780910204909103040997099780
:1009500008F0D2CE10921803109217038FEF9FEF7A
:10096000DC018093130390931403A0931503B093B9
:10097000160383E090E09093100380930F03809020
:10098000130390901403A0901503B090160382E017
:100990008093F5031092F903E2E5F1E000E010E046
:1009A00080819181A281B381379688159905AA0526
:1009B000BB05A9F441E061E080E00E94191F87E0D7
:1009C000809FF001819FF00D1124EE5AFE4F01E04F
:1009D00021E04681658184810E94111EECC60F5F73
:1009E0001F4F00311105E1F6BFC5408151814650CE
:1009F00051094730510508F084CE880F991FAA1F6E
:100A0000BB1F04CF20813181235131092F303105A3
:100A100040F4440F551F661F771F416002963496BD
:100A20009DCE208131812A5031092930310528F4A9
:100A3000440F551F661F771FF1CF8091F9038A314C
:100A400008F462C08091FC039091FD0380329340D2
:100A500008F463CE8091FE039091FF03C6978697BA
:100A600008F052C08091000490910104C6978697C7
:100A700008F04AC0E4E0F4E023E030E040E050E079
:100A8000BA01C9010196A091F903B0E08A179B074A
:100A90004CF4DF0112970D90BC91A02D1C971B9771
:100AA000D8F001C0C90101979595879590931803D7
:100AB000809317030C972CF41092180310921703CD
:100AC00023C0409313035093140360931503709352
:100AD00016038BE090E0AFCE8081918185974B9794
:100AE00048F4440F551F661F771F41602E5F3F4F2C
:100AF0003496C7CF808191810C970A9728F4440FD0
:100B0000551F661F771FF2CF8091F903823208F4D8
:100B100058C08091FE039091FF030697079708F055
:100B200050C0E2E0F4E082E090E0812C912C54018E
:100B30009C012F5F3F4F4091F90350E02417350788
:100B4000CCF4DF0112974D915C9111974E515109F0
:100B50004731510540F5880C991CAA1CBB1C6894B0
:100B600080F84081518134964350510945305105F8
:100B700030F1C9010197959587959093180380935B
:100B8000170340972CF4109218031092170319C002
:100B90008092130390921403A0921503B09216034F
:100BA0008CE090E048CE4D915C914C5051094B3017
:100BB000510538F4880C991CAA1CBB1CD2CF029694
:100BC000B7CF1BA21AA281E090E09A83898380911B
:100BD000F9038D3078F41BA21AA281E090E09A8389
:100BE000898380911B0390911C03181619060CF43D
:100BF0006CC0C3C049E753E0BE016E5D7F4FCE01BC
:100C000001960E940C0F892B31F749E753E0BE0192
:100C10006E5D7F4FCE0101960E940C0F0197D9F6B1
:100C200049E753E0BE016E5D7F4FCE0101960E9401
:100C30000C0F892B81F6412C512C320100E010E081
:100C40008091F90390E029813A812817390774F5DA
:100C500049E753E0BE016E5D7F4FCE0101960E94D1
:100C60000C0F5C0149E753E0BE016E5D7F4FCE0182
:100C700001960E940C0FE1E0AE16B10451F4892BED
:100C800009F0A9CF440C551C661C771C689440F8E9
:100C90000AC0AB2809F09FCF019709F09CCF440C04
:100CA000551C661C771C0F5F1F4FCACF109318038B
:100CB000009317034092130350921403609215039C
:100CC0007092160381E090E0B6CDE0911903F091A7
:100CD0001A0382E090E09A838983828193818997C5
:100CE0004E9708F04AC083E090E09A83898384811C
:100CF00095810B970A9708F040C04CEB51E0BE017C
:100D00006E5D7F4FCE0101960E940C0F892BA9F5D5
:100D10004CEB51E0BE016E5D7F4FCE0101960E940B
:100D20000C0F019751F5412C512C320100E010E0DD
:100D300020911B0330911C0389819A8182179307AC
:100D40000CF026C14CEB51E0BE016E5D7F4FCE0131
:100D500001960E940C0F5C010330110509F0E2C0FE
:100D60004CEB51E0BE016E5D7F4FCE0101960E94BB
:100D70000C0FA816B90609F4D5C0E0911903F0913B
:100D80001A0382819381C6978697E0F484819581C6
:100D90004B974597B8F4DF0116964F0136EC830E5A
:100DA000911C20E030E0B12CA12C60E070E080E0EC
:100DB00090E04D915C91119749505109483051058F
:100DC00008F4F5C08091F903893370F18281938131
:100DD000895791098335910508F42DC125C0D901A2
:100DE00012966D917C91139766517109613171056D
:100DF00008F04DC1D501C401880F991FAA1FBB1F60
:100E00004C015D01689480F84E5F5F4F2C5F3F4F4F
:100E10004B33510509F41EC1D9016D917C916A5083
:100E2000710969307105D8F28091F903823231F489
:100E3000828193810A97099708F439C1828193814D
:100E40008957910983359105D0F48091F903813256
:100E5000B0F084819581CA97899788F49F012A5FB1
:100E60003F4F812C912C540143E050E0D9016D910A
:100E70007C916A5071096930710508F439C1828129
:100E800093818C549109C59778F48091F90384304B
:100E900031F4848195818097479708F48BC18091C4
:100EA000F903843408F06DC18091F903863460F150
:100EB000828193810C970B9708F4CEC125C0D9018C
:100EC00012966D917C9113976E517109673171057E
:100ED00008F0FAC1D501C401880F991FAA1FBB1FD2
:100EE0004C015D01689480F84E5F5F4F2C5F3F4F6F
:100EF0004534510509F4CBC1D9016D917C916C50F9
:100F000071096B307105D8F28091F903883508F4C6
:100F100043C282819381855891098B35910508F4EC
:100F2000E3C13AC24CEB51E0BE016E5D7F4FCE0192
:100F300001960E940C0F4C010330110569F44CEB33
:100F400051E0BE016E5D7F4FCE0101960E940C0FF5
:100F50008816990609F011CFA114B10459F48A94A6
:100F6000892809F00ACF440C551C661C771C68942C
:100F700040F80BC0AA94AB2809F0FFCE892809F0ED
:100F8000FCCE440C551C661C771C0F5F1F4FD0CE47
:100F90001093180300931703409213035092140305
:100FA000609215037092160382E090E044CC129692
:100FB0004D915C911397415151094D30510538F4D1
:100FC0004B2D5A2D01E00E946F2C21600FC012960C
:100FD0004D915C911397445051094530510508F0EB
:100FE000F1CE4B2D5A2D01E00E946F2CB42EA52E70
:100FF0001496A815B90509F0DCCE4B2D5A2D209377
:10100000130330931403B0921503A092160300E269
:101010000E948A2C209311033093120385E090E004
:101020009093100380930F0380E390E09093180354
:101030008093170304CC84819581CA97899708F01F
:10104000F3CE9F012A5F3F4F812C912C540143E046
:1010500050E0E2CE9F012A583F4FD9012D913C919B
:101060002A5031092930310508F0DECE2CE130E07C
:101070003093180320931703809213039092140364
:10108000A0921503B09216038AE090E0D4CBD90168
:1010900012966D917C9113976650710967307105B6
:1010A00008F0C2CE880C991CAA1CBB1CADCE2091A6
:1010B000F903CF01820F911D820F911DDC01129760
:1010C0008D919C910A97099708F0B8CE1092180359
:1010D000109217038FEF9FEFDC018093130390931F
:1010E0001403A0931503B093160386E090E043CC5D
:1010F000D90112966D917C911397665171096131F6
:10110000710578F5D501C401880F991FAA1FBB1F6F
:101110004C015D01689480F84E5F5F4F2C5F3F4F3C
:101120004332510509F0A2CE9F012A5B3F4FD901FE
:101130002D913C912A5031092930310508F09FCE7C
:1011400020E130E0309318032093170380921303BB
:1011500090921403A0921503B092160386E090E0DB
:101160006ACBD90112966D917C91139766507109E3
:101170006730710508F083CE880C991CAA1CBB1C33
:10118000CBCF8481958189549109C39708F08CCE87
:101190009F012A5F3F4FBF016A577F4F812C912CDF
:1011A0005401D9014D915C91495051094930510583
:1011B000C8F07ACE868197810997099708F06FCE9B
:1011C00010921803109217038FEF9FEFDC018093AA
:1011D000130390931403A0931503B093160387E0B1
:1011E00090E0C9CBD90112964D915C91139746516D
:1011F00051094131510500F5D501C401880F991FEE
:10120000AA1FBB1F4C015D01689480F82C5F3F4F03
:101210002617370731F620E230E030931803209389
:1012200017038092130390921403A0921503B092B7
:10123000160387E090E0FFCAD90112964D915C91A8
:101240001397465051094730510508F02DCE880CB0
:10125000991CAA1CBB1CDACF848195810997099738
:1012600008F052CE868197818C974F9708F04CCE2C
:101270008085918589974D9708F046CE9F01265F1E
:101280003F4F812C912C540145E050E035CE9F0119
:1012900026573F4FD9012D913C912C5031092B30CD
:1012A000310508F031CE20E230E03093180320936E
:1012B00017038092130390921403A0921503B09227
:1012C000160388E090E0B7CAD90112966D917C911F
:1012D0001397695071096930710508F015CE880CB3
:1012E000991CAA1CBB1C00CE848195818254910953
:1012F0008E9708F051C08F01045C1F4F8DE190E084
:1013000040E050E02091F90330E024503109821789
:101310009307ACF4980122503109D9012D913C91E9
:10132000295031092830310510F136C0D8012D91EE
:101330003C91285131092231310558F1CB010197F7
:101340009595879590931803809317038A9724F1B6
:10135000052E000C660B770B409313035093140378
:10136000609315037093160389E090E064CABC0192
:101370006F5F7F4FD8012D913C9127503109273065
:101380003105A0F6440F551F416002960C5F1F4FB8
:10139000B9CF440F551FF9CF8091F9038032E1F4A2
:1013A0008281938106970697B8F484819581099785
:1013B000099790F49F012A5F3F4FBF01625C7F4F06
:1013C000812C912C5401D9014D915C9146505109C9
:1013D0004630510508F488C020911B0330911C034E
:1013E0003DA32CA3263031050CF4B9C08F010E5F4C
:1013F0001F4FE5EC4E2EEDE95E2EECE16E2EE1E89E
:101400007E2EF3E02F2E312CD80114966D917C9115
:101410001597AD90BC9080E090E00E946A296EA381
:101420007FA388A799A7B50180E090E00E946A2970
:101430004B015C012DEC3CEC4CE45FE30E94CB29BA
:101440009B01AC016EA17FA188A599A50E94652989
:1014500087FD1AC02DEC3CEC4CE45FE36EA17FA14C
:1014600088A599A50E94CB299B01AC01C501B401B7
:101470000E946529082E000C990BFC01EE27FF0F36
:10148000EE1FFF27319602C0E0E0F0E0A3019201D9
:1014900063E971E080E091E00E94C32A4F01FF0FF1
:1014A000AA08BB0824013501462657266826792656
:1014B000BFEF2B1A3B0A0E5F1F4FECA1FDA12E16AA
:1014C0003F0609F0A1CF409213035092140360929B
:1014D00015037092160380E290E0909318038093B6
:1014E00017038FEF9FEFA7C9D90112964D915C9119
:1014F0001397495151094331510508F5D501C401EC
:10150000880F991FAA1FBB1F4C015D01689480F8CA
:101510002C5F3F4F2617370709F055CF2EE030E0FC
:1015200030931803209317038092130390921403AF
:10153000A0921503B09216038FE090E07CC9D90108
:1015400012964D915C9113974950510949305105BC
:1015500008F042CF880C991CAA1CBB1CD9CF82E092
:101560008093F5031092F9038091FC029091FD02A3
:10157000A091FE02B091FF02A7019601281B390B32
:101580004A0B5B0BDA01C90181369A4EAF4FBF4F50
:1015900050F0C092FC02D092FD02E092FE02F09266
:1015A000FF020E94630E8091DE05882309F410C1BA
:1015B0008091F8029091F902A091FA02B091FB0299
:1015C000B701A601481B590B6A0B7B0B80912901BF
:1015D00090912A01092E000CAA0BBB0B4817590742
:1015E0006A077B0708F4F4C08091EA059091EB0547
:1015F000A091EC05B091ED050097A105B10509F4A6
:101600004BC0C81AD90AEA0AFB0AB9E8CB16B3E1FB
:10161000DB06E104F10408F43FC061E08DE991E0EC
:101620000E94B12A609128018FE991E00E94B12ABD
:101630008091290190912A0164E670E00E945B2C60
:101640008EE991E00E94B12A60911E0180EA91E04A
:101650000E94B12A6091F00587EA91E00E94B12AC8
:101660006091EF0588EA91E00E94B12A6091EE0551
:1016700089EA91E00E94B12A86ED91E00E94F30D83
:1016800087EE91E00E94F30D1092EA051092EB05AF
:101690001092EC051092ED050E9456196093F80225
:1016A0007093F9028093FA029093FB0280912801D3
:1016B000823041F1833009F442C0813009F088C0A2
:1016C00081E2E1E3F1E0DE01119601900D928A954D
:1016D000E1F78091F7028C3010F01092F702109130
:1016E000F702E12FF0E0CF01880F991FE80FF91FF3
:1016F00021E030E02C0F3D1FE20FF31F428161819A
:10170000808117C08091F702833010F01092F702A9
:101710001091F702113051F028F0123061F44FEFC0
:1017200060E006C040E060E08FEF03C040E06FEF94
:1017300080E00E94991D1F5F1093F70249C08091BD
:10174000F702833020F01092F7021092F602109107
:10175000F702113099F050F01230B9F48091F6028E
:101760008093EF0580958093F0050FC08091F6027D
:101770008093EE0580958093EF0507C08091F60277
:101780008093F00580958093EE054091EE05609181
:10179000EF058091F0050E94991D8091F6028F3F20
:1017A00031F41F5F1093F7021092F60211C08B5FA5
:1017B0008093F6020DC040E1C501B4010E94220EE3
:1017C00081EE91E00E94F30D87EE91E00E94F30D0F
:1017D000A9960FB6F894DEBF0FBECDBFDF91CF91B3
:1017E0001F910F91FF90EF90DF90CF90BF90AF903F
:1017F0009F908F907F906F905F904F903F902F9031
:101800000895CF92DF92EF92FF920F931F93CF93A1
:10181000DF936C017A018B01C0E0D0E0CE15DF05CB
:1018200081F0D8016D918D01D601ED91FC9101906F
:10183000F081E02DC6010995892B11F02196EECF9C
:101840007E01C701DF91CF911F910F91FF90EF9023
:10185000DF90CF900895089580E090E00895FC0116
:10186000538D448D252F30E0842F90E0821B930B05
:10187000541710F0CF96089501970895FC01918DAB
:10188000828D981761F0828DDF01A80FB11D5D96E2
:101890008C91928D9F5F9F73928F90E008958FEF50
:1018A0009FEF0895FC01918D828D981731F0828D04
:1018B000E80FF11D858D90E008958FEF9FEF08955B
:1018C000FC01918D228D892F90E0805C9F4F821BBF
:1018D00091098F739927089588E593E00E94600C21
:1018E00021E0892B09F420E0822F0895FC01848DEA
:1018F000DF01A80FB11DA35ABF4F2C91848D90E03A
:1019000001968F739927848FA689B7892C93A08914
:10191000B1898C91837080648C93938D848D98139E
:1019200006C00288F389E02D80818F7D8083089531
:10193000EF92FF920F931F93CF93DF93EC0181E01F
:10194000888F9B8D8C8D981305C0E889F9898081DB
:1019500085FD26C0F62E0B8D10E00F5F1F4F0F7315
:101960001127E02E8C8DE8120CC00FB607FCFACFC1
:10197000E889F989808185FFF5CFCE010E94760C38
:10198000F1CF8B8DFE01E80FF11DE35AFF4FF0827E
:101990009FB7F8940B8FEA89FB89808180620AC027
:1019A0009FB7F894EE89FF896083E889F98980817F
:1019B0008370806480839FBF81E090E0DF91CF914E
:1019C0001F910F91FF90EF900895CF93DF93EC015B
:1019D000888D8823C9F0EA89FB89808185FD05C04F
:1019E000A889B9898C9186FD0FC00FB607FCF5CF89
:1019F000808185FFF2CFA889B9898C9185FFEDCFD1
:101A0000CE010E94760CE7CFDF91CF91089580E060
:101A100090E0892B29F00E946C0C81110C9400003D
:101A20000895CF93DF93EC01198218821B821A82EA
:101A30001D821C8261E070E080E090E00E94C02C7A
:101A4000009759F0998388831B821A822C813D81EB
:101A5000232B91F4FC0110820FC08881998100979B
:101A600011F00E940322198218821D821C821B829F
:101A70001A82DF91CF9108951D821C8269EE71E078
:101A800088819981DF91CF910C94942D0E94862DAD
:101A9000EAE9F5E09091540391838283668325837C
:101AA00084814770807E482B4483CF0108950F9333
:101AB0001F93CF93DF93EC018C818295869587707D
:101AC00091F44B8146954695469550E0BE01695F7D
:101AD0007F4F81E293E00E949B2DEB81E695E69596
:101AE000E695F0E076C0813031F48F814AE061E222
:101AF00073E090E007C0823041F44AE061E273E0B5
:101B00008F8198850E94F02367C0833041F44AE0BA
:101B100061E273E08F8198850E9449245DC0843022
:101B200051F46F81788589859A852AE041E253E0F6
:101B30000E94FB2351C0853051F46F8178858985DF
:101B40009A852AE041E253E00E94272445C087306D
:101B500011F020E030C02B85293008F028E06F819B
:101B6000788589859A8501E213E042E00E944B2145
:101B700033C0E22FF0E0AF01440F551FDA01AF5D33
:101B8000BC4FEC0FFD1F8781082E000C990B34E031
:101B9000959587953A95E1F78F708A3098F4805D36
:101BA0008C93DA01AE5DBC4F87818F708A3060F410
:101BB000805D8C932F5FEB81E695E695E6952E1779
:101BC000C0F204C0895CECCF895CF3CFF0E0EE0F8B
:101BD000FF1FEF5DFC4F108281E293E0DF91CF9118
:101BE0001F910F910895009769F0FC01019000206A
:101BF000E9F73197AF01481B590BBC0188E593E029
:101C00000C94010C80E090E008950F931F93CF9304
:101C1000DF938C01C0E0D0E0F801EC0FFD1F649170
:101C2000662341F088E593E00E94980C892B11F01F
:101C30002196F2CFCE01DF91CF911F910F910895A0
:101C40000C94F30D8F929F92AF92BF920F931F93BC
:101C5000CF93DF93CDB7DEB7A1970FB6F894DEBF71
:101C60000FBECDBF19A2423008F44AE08E010F5DCD
:101C70001F4F842E912CA12CB12CA50194010E9400
:101C8000D32AE62FB901CA0101501109EA3014F430
:101C9000E05D01C0E95CD801EC93232B242B252BBC
:101CA00061F7C8010E94F30DA1960FB6F894DEBF4C
:101CB0000FBECDBFDF91CF911F910F91BF90AF901D
:101CC0009F908F900895CF92DF92EF92FF920E94A3
:101CD0000F166B017C0126E143E06FEF80E00E946C
:101CE000480DFC0184818F71806A848383818770B1
:101CF00080628383C782D086E186F286CF01FF901F
:101D0000EF90DF90CF900C941515CF93DF93262F93
:101D10008F3F11F0EA0102C0CAEED1E040E0682F27
:101D200080E00E94480DBE010E946112DF91CF91B8
:101D30000C941515262F42E0682F80E00E94480D74
:101D400069EE71E00E9461120C941515FC018091FE
:101D5000540381839481907F9160948380912003C8
:101D600080FF03C0CF010C94151582EB91E09F9387
:101D70008F930E94F3160F900F9080E00895CF92FA
:101D8000DF92EF92FF92CF93DF936C01990FEE08F1
:101D9000FF08F7FE13C06DE288E593E00E94980CFF
:101DA000EC0166277727CB016C197D098E099F0905
:101DB0004AE00E94220EC80FD91F06C04AE0C701A0
:101DC000B6010E94220EEC0187EE91E00E94F30D15
:101DD0008C0F9D1FDF91CF91FF90EF90DF90CF9000
:101DE0000895CF93DF93AB01682F4115510529F476
:101DF00088E593E00E94980C05C070E080E090E0D8
:101E00000E94220EEC0187EE91E00E94F30D8C0FF0
:101E10009D1FDF91CF9108958F929F92AF92BF92B5
:101E2000CF92DF92EF92FF920F931F93CF93DF93A6
:101E3000FC0120813181E0911B03F0911C032E17DE
:101E40003F070CF04FC0F901EE0FFF1FA0911903DF
:101E5000B0911A03EA0FFB1FA080B18021703327D5
:101E60006901F1E0CF26232B19F42CE93FEF02C0E2
:101E700024E630E07A018B01EC014901840E951EC5
:101E8000B401C5010E94D51A892B99F48E0C9F1CB0
:101E9000B401C5010E94D51A892B71F4B701680DF0
:101EA000791DC5010E94D51A892BF9F023E030E095
:101EB00005C021E030E002C022E030E0F80180817E
:101EC00091810196821793071CF49183808308C047
:101ED000F801118210828881998101969983888303
:101EE000C60105C081E090E002C08FEF9FEFDF9157
:101EF000CF911F910F91FF90EF90DF90CF90BF9007
:101F0000AF909F908F900895CF92DF92EF92FF92C3
:101F1000CF93DF93D82F0E9456196B017C0181E08B
:101F2000D11180E08093C005C0E00E945619DC0109
:101F3000CB018C199D09AE09BF09803D9740A105D1
:101F4000B105A8F4C11113C0A8950E940416809190
:101F50000A0384FD0E94191B8091BF05877083309E
:101F600021F7C1E08091C0058D13DECFDECF8C2F2D
:101F7000DF91CF91FF90EF90DF90CF9008951F9267
:101F80000F920FB60F9211242F933F934F935F93AD
:101F90006F937F938F939F93AF93BF93EF93FF9331
:101FA00088E593E00E94760CFF91EF91BF91AF918D
:101FB0009F918F917F916F915F914F913F912F9161
:101FC0000F900FBE0F901F9018951F920F920FB693
:101FD0000F9211242F938F939F93EF93FF93E09190
:101FE0006803F09169038081E0916E03F0916F03C3
:101FF00082FD12C09081809171038F5F8F73209159
:102000007203821751F0E0917103F0E0E85AFC4F3F
:10201000958F8093710301C08081FF91EF919F9113
:102020008F912F910F900FBE0F901F9018958330B6
:1020300081F028F4813099F08230A1F00895873042
:10204000A9F08830B9F08430D1F4809180008F7D80
:1020500003C0809180008F7780938000089584B5BD
:102060008F7702C084B58F7D84BD08958091B000C4
:102070008F7703C08091B0008F7D8093B00008956A
:102080001F93CF93DF93282F30E0F901E256FE4FE4
:102090008491F901E657FE4FD491F901EA58FE4FB9
:1020A000C491CC23C1F0162F81110E941710EC2F80
:1020B000F0E0EE0FFF1FE459FE4FA591B4919FB7DA
:1020C000F894111104C08C91D095D82302C0EC91E2
:1020D000DE2BDC939FBFDF91CF911F910895CF93AB
:1020E000DF9390E0FC01E657FE4F2491FC01EA5893
:1020F000FE4F8491882361F190E0880F991FFC01C5
:10210000EE59FE4FC591D491FC01E459FE4FA591C3
:10211000B491611109C09FB7F894888120958223FA
:102120008883EC912E230BC0623061F49FB7F89442
:102130008881322F309583238883EC912E2B2C932A
:102140009FBF06C08FB7F894E8812E2B28838FBFDE
:10215000DF91CF9108951F93CF93DF93182FEB0159
:1021600061E00E946F10209711F460E004C0CF3F3F
:10217000D10539F461E0812FDF91CF911F910C944B
:102180004010E12FF0E0E256FE4FE491E330F9F029
:1021900048F4E130B9F0E230A1F584B5806284BD45
:1021A000C8BD34C0E730E9F0E83019F1E43049F552
:1021B00080918000806280938000D0938B00C093D8
:1021C0008A0024C084B5806884BDC7BD1FC08091CB
:1021D0008000806880938000D0938900C09388003D
:1021E00015C08091B00080688093B000C093B300A8
:1021F0000DC08091B00080628093B000C093B400A5
:1022000005C0C038D1050CF0B5CFAFCFDF91CF916D
:102210001F9108958F929F92AF92BF92CF92DF92BB
:10222000EF92FF926B017C010E9431194B015C011E
:10223000C114D104E104F104F1F00E943119DC0170
:10224000CB0188199909AA09BB09883E9340A105C9
:10225000B10570F321E0C21AD108E108F10888EE57
:10226000880E83E0981EA11CB11CC114D104E104A6
:10227000F10419F7DDCFFF90EF90DF90CF90BF9082
:10228000AF909F908F90089568E186E00E949A0E2B
:1022900068E285E00E949A0E67E184E00E949A0E4F
:1022A00068E183E00E949A0E69E183E00E949A0E41
:1022B00062E082E00E949A0E99E288E10FB6F894FB
:1022C000A895809360000FBE90936000F89482E020
:1022D0008093B0008093B10092E39093B30010928A
:1022E000B200809370007894E5EFF3E0808314826D
:1022F000818160E00C946F100F93CF93DF9360E0C7
:1023000082E00E946F1060E082E00E94401061E075
:1023100086E00E946F1061E085E00E946F1061E02E
:1023200089E00E946F108FE991E00E94992A8F3F07
:1023300021F040E060E00E94191F8EE991E00E94C8
:10234000992A8F3F41F040E060E024E6829FC0017F
:1023500011240E948A1E80EA91E00E94992A8F3FF0
:1023600029F040E060E090E00E94CC1E89EA91E014
:102370000E94992AD82F88EA91E00E94992AC82FB2
:1023800087EA91E00E94992A00E020E04D2F6C2F0F
:102390000E94111E8DE991E00E94992A982F8F3F8B
:1023A00059F081E0911101C080E040E060E0DF91F0
:1023B000CF910F910C944B1FDF91CF910F91089506
:1023C000809156031F928F93809155031F928F9394
:1023D000809154031F928F9389EC91E09F938F9388
:1023E0000E94F31680910A03846080930A0380910F
:1023F0000B03807880930B03E091E805F091E905E9
:102400008DB79EB708960FB6F8949EBF0FBE8DBFCE
:10241000309709F00994089580910B03982F9077D5
:10242000903759F0982F92959F709F5F9770929573
:10243000907F8F78892B80930B0380910B0382957B
:1024400087701F928F938CE192E09F938F930E94ED
:10245000F31680910A038B7F8F7E80930A038EE0B0
:1024600092E09F938F930E94F31681E092E09F93F6
:102470008F930E94F31628988DB79EB708960FB6D3
:10248000F8949EBF0FBE8DBF6CE080E20C94CF1617
:10249000FC0184818F718064848383818770806173
:1024A000838370876783CF010895FC0183818770E0
:1024B0008860838384818F71806284836783CF0186
:1024C00008950F931F93CF93DF93EC01611571056E
:1024D00061F0FB0101900020E9F73197E61BF70B53
:1024E000E931F10518F0E9E101C0E0E00E2F10E05C
:1024F0008B81282F2770C80133E0880F991F3A95E8
:10250000E1F7822B8B838C818F718C83EE2329F0F2
:10251000A801CE0107960E949B2DFE01E00FF11F3E
:102520001782CE01DF91CF911F910F910895FC0189
:102530002481229526952770213011F487810895F2
:10254000211104C007960E94A223089580E00895F7
:10255000CF92DF92EF92FF920F931F93CF93DF936F
:10256000CDB7DEB727970FB6F894DEBF0FBECDBF4D
:10257000FC01948194FD33C18F01892F87708230D3
:1025800009F087C0F18080EF91E00E94200E6AE0A0
:1025900070E08F2D0E94F10E87E092E00E94200EE5
:1025A0006AE070E0F80186810E94F10EF8018681F0
:1025B000843009F464C028F4823069F0833001F17A
:1025C0000EC18530B1F1863009F009C160911D015D
:1025D00087E395E027C09091DE0580917C058770A8
:1025E000886080937C0580917D058F7180628093E7
:1025F0007D0590938005F0927B0589E795E016C0F4
:10260000F8018581883151F0893109F0E8C0609185
:10261000290170912A0185EF94E038C0609128016A
:1026200086E195E00E945512FC01F2820E94A60EFE
:10263000D6C08091EE051F928F938091EF051F9277
:102640008F938091F0051F928F9386E192E09F9384
:102650008F938E010F5F1F4F1F930F930E94AA2D20
:10266000B80188E595E00E946112FC01F2820E94A7
:10267000A60E0FB6F894DEBF0FBECDBFB0C06091FE
:102680001E01062E000C770B84ED94E00E94481288
:10269000CBCF892F82958695877011F4379602C02B
:1026A000E0E0F0E09081992309F499C0F801968167
:1026B000943009F45AC028F4923021F1933069F132
:1026C0008EC0963009F47CC008F463C0993C09F0D0
:1026D00086C0C8010E9497128093DC058DE292E0CB
:1026E0000E94200E6AE070E08091DC050E94F10EED
:1026F0006091DC0580E090E00E94B12AE0E0F0E02B
:1027000009956DC0C8010E94971291E0811101C026
:1027100090E040E061E0892F11C0F8019581983187
:1027200019F0993171F05BC0C8010E94971240E026
:1027300061E00E94191F41E061E081E00E944B1FAF
:102740004EC0823021F4F8018781908509C0811143
:1027500005C0C80107960E94A22302C080E090E055
:1027600040E061E00E948A1E3AC0823021F4F80104
:102770008781908509C0811105C0C80107960E9414
:10278000A22302C080E090E040E061E00E94CC1E05
:1027900026C040E150E060E070E0C80107960E946A
:1027A0008C226B017C019927F7FC9A958F2D7E2D49
:1027B0006D2D00E021E04C2D8E2D0E94111E0FC0CA
:1027C000C8010E94971280931D0183E292E00E944B
:1027D000200E6AE070E080911D010E94F10E2796A4
:1027E0000FB6F894DEBF0FBECDBFDF91CF911F9122
:1027F0000F91FF90EF90DF90CF900895CF93DF93EC
:10280000FC01108211821282148215821682DC0170
:1028100017968AE1ED0119928A95E9F782E08383A0
:10282000DF91CF910895AF92BF92CF92DF92EF9256
:10283000FF920F931F93CF93DF93EC018A819091C6
:102840000A0390FF0CC08F3F79F081EB92E09F93D9
:102850008F930E94F3160F900F9010E0DAC08F3F15
:1028600019F0F090550302C0FF24FA9480915403AC
:1028700088834B8142FD06C046954695469507E004
:10288000040F01C000E2109157031170289880E0F6
:1028900091E00197F1F76EE080E20E94CF1684ECA0
:1028A00090E00197F1F76F2D8AE20E94CF166F2D0D
:1028B00080E30E94CF1681EE0E94ED168FEFF8168E
:1028C00011F0112311F080EB01C080EA402F01329A
:1028D00008F040E220E0BE010E948816289A80E1BC
:1028E00090E00197F1F72898C12CD12C8FEF0E942E
:1028F000ED16082F807321F491E0C91AD108B1F7C1
:1029000060E387E20E94CF1604FF03C081EE0E94BD
:10291000ED160E94E01605FD11E081E09FEFF9122F
:1029200080E0182B8C818770833019F48D81813180
:1029300029F0CE010E94570DFC0102C0EAE3F2E04B
:10294000111103C065E472E002C062E472E05091CC
:102950000B035F709B8192FBAA24A0F8492F469538
:10296000469546959C81B92EB294B69487E0B822DC
:10297000ED809770CE80DA80AF2DB0E0088189813C
:102980002091570320FD05C0111106C02CE432E050
:1029900005C02AE432E002C029EE31E0FF93EF9354
:1029A0007F936F931F925F931F92AF921F924F93EB
:1029B0001F92BF921F92EF921F929F931F92CF92EE
:1029C0001F92DF92BF93AF931F920F931F928F932B
:1029D0003F932F9386E692E09F938F930E94F31686
:1029E0008DB79EB74E960FB6F8949EBF0FBE8DBFA3
:1029F00080915503F8120DC080910B03111106C090
:102A000091E0980F9F70807F892B01C0807F809319
:102A10000B03812FDF91CF911F910F91FF90EF90CA
:102A2000DF90CF90BF90AF90089520910A0322FDD0
:102A30000C94131487EC92E09F938F930E94F316EB
:102A40000F900F9080E008952BE043E06FEF80E05F
:102A50000E94480D6EE472E00E9461120E941515FA
:102A60002CE043E06FEF80E00E94480D67E572E0E4
:102A70000E9461120E9415154BE552E067E188EC57
:102A80000E94850E4CE652E067E189EC0E94850EBB
:102A900048E752E063E082E00E94850E43E552E0A1
:102AA0006AE185E00E94850E4FE752E067E183E02E
:102AB0000E94850E48E852E060E184E00E94850EA5
:102AC0004BE952E067E186E00C94850ECF932FE04E
:102AD00043E06FEF80E00E94480D69EE71E00E94D4
:102AE0006112EAE9F5E083818770806183838481E4
:102AF0008F71806C848381E087831086CF010E9470
:102B000015158FE00E94840F49EE51E061E18FEFCF
:102B10000E94850EC091550326E043E06FEF80E0F0
:102B20000E94480D6C2F0E9455120E94151586E0D8
:102B30000E94840FCF910C942415CF938091200391
:102B400081FD27C00E94661585ED92E09F938F93CB
:102B50000E94F316809120038160809320030F90E0
:102B60000F90C4E02AE143E06FEF80E00E94480D3F
:102B700062E00E9455120E9415158BE10E94840F9D
:102B8000811102C0C15071F780912003826080934F
:102B90002003CF910895CF93C82F8FEF8C0F8E3FD6
:102BA00008F5C0935403C093040163E082E20E94DD
:102BB000CF1661E081E20E94CF160E94E0166C2FD2
:102BC00080E090E00E94B12A1F92CF938FE392E0C1
:102BD0009F938F930E94F3160F900F900F900F907A
:102BE00081E010C01F92CF9381E592E09F938F9375
:102BF0000E94F3168FEF809354030F900F900F9065
:102C00000F9080E0CF910895E0910003F0910103CF
:102C1000309721F00280F381E02D099408950F93FD
:102C20001F930E94561900910203109103032091F3
:102C3000040330910503601B710B820B930B1F91F2
:102C40000F9108959C0180910003909101038217D8
:102C5000930751F090910A039F7190930A03309368
:102C600001032093000305C080910A03805E8093D6
:102C70000A03E0910003F0910103309721F00190E5
:102C8000F081E02D09950E9456196093020370931C
:102C90000303809304039093050308950F931F93F8
:102CA0000E940F1620910B032077203729F000E1B6
:102CB00017E220E030E004C000E61AEE20E030E049
:102CC000061717072807390770F48DE292E09F93E3
:102CD0008F930E94F3160F900F9084E291E01F9162
:102CE0000F910C9422161F910F91089580910B0360
:102CF0008F70863060F088EE91E09F938F930E94F2
:102D0000F3160F900F9080E091E00C942216089536
:102D100090E59CBD1DBC2A98E0E1F0E03197F1F709
:102D20008EBD00000DB407FEFDCF8EB5FB019FEFF9
:102D30004150C8F0222361F09EBD00000DB407FE93
:102D4000FDCF8EB56115710599F380833196F0CF73
:102D5000DF01119680818EBD00000DB407FEFDCF0E
:102D60008EB5FD01E5CF2A9AE0E1F0E03197F1F769
:102D7000089521E041E060E070E086E00E9488165E
:102D8000873251F421E041E060E070E085E00E948C
:102D9000881691E08C3409F090E0892F0895CF9344
:102DA000DF931F92CDB7DEB7698320E041E0BE011B
:102DB0006F5F7F4F0E9488160F90DF91CF9108952B
:102DC0006FE080E20E94CF16609104016F3F19F01E
:102DD0008AE20E94CF16289A089520E040E060E041
:102DE00070E00C948816EF92FF920F931F93CF938D
:102DF000DF93CDB7DEB7C857D1090FB6F894DEBF61
:102E00000FBECDBF8E010F571F4FF801E190F1901B
:102E10008F010E9456194AE00E94220E82EE92E033
:102E20000E94050E9801A70168E770E0CE010196A7
:102E30000E946324CE0101960E94200E88E593E053
:102E40000E94E50CC858DF4F0FB6F894DEBF0FBEE6
:102E5000CDBFDF91CF911F910F91FF90EF9008951B
:102E600080910C038F3F79F10E94561960930603FD
:102E70007093070380930803909309038BEA93E010
:102E80009F938F930E94F31690910C0380915603A9
:102E90000F900F909817A1F01F929F931F928F93FE
:102EA00083E993E09F938F930E94F31680910C0324
:102EB000809356030F900F900F900F900F900F90EC
:102EC00089E191E01DC00E940F16613D77408105A8
:102ED0009105C0F080910A03803618F485E191E0F5
:102EE0000FC084E893E09F938F930E94F316809124
:102EF0000A03877F80930A030F900F9080E091E090
:102F00000C94221608958BE793E09F938F930E9471
:102F1000F3168FEF80930C03EAE0F3E08081886082
:102F2000808328E143E06FEF80E00E94480D61E07C
:102F30000E9455120F900F900C941314809154031B
:102F40008F3F59F080E793E09F938F930E94F31691
:102F50000F900F9085E191E018C00E940F16613D1F
:102F600077408105910598F080910A03803618F426
:102F700081E191E00AC082E693E09F938F930E94E3
:102F8000F3160F900F908DE091E00C9422160895A7
:102F9000CF938AE593E09F938F930E94F3160F904F
:102FA0000F90809154038F3F01F50E9456196F3F97
:102FB00019F060931F0102C010921F01C0911F0100
:102FC0008EE493E09F938F930E94F31623E043E0F7
:102FD0006C2F80E00E94480D69EE71E00E94611242
:102FE0000F900F90CF910C941314CF9108950E94DD
:102FF0000F16613D77408105910520F480910A0309
:1030000081FF0895809155038F3F81F081E493E023
:103010009F938F930E94F31680910A038E7F809373
:103020000A030F900F9081E191E019C080910A038B
:10303000803658F48DE193E09F938F930E94F316AE
:103040000F900F9080E091E00AC081E393E09F939E
:103050008F930E94F3160F900F908DE091E00C94E7
:10306000221683E193E09F938F930E94F316EAE088
:10307000F3E08081897F81608083E4E5F3E08FEF76
:103080008283818327E043E06FEF0E94480D69EE61
:1030900071E00E9461120F900F900C941314CF9363
:1030A000209A229A28982A9ACFB7F8948091DD0521
:1030B000811127C0E0E8F1E08491E4E9F1E0949126
:1030C000E82FF0E0EE0FFF1FEE59FE4FA591B491EF
:1030D000EC91E92321F461E08AE00E94401061E074
:1030E0008AE00E946F108CB580618CBD8CB58064C5
:1030F0008CBD61E08DE00E946F1061E08BE00E946A
:103100006F108091DD058F5F8093DD05CFBF6EE08E
:1031100080E20E94CF1665E070E080E090E00E94BF
:103120000A1163E083E20E94CF166FE584E20E94F9
:10313000CF166CE485E20E94CF1667E286E20E9419
:10314000CF1663E780E50E94CF1664E08DE30E940E
:10315000CF160E94B916882309F449C062E082E2C2
:103160000E94CF1660E081E20E94CF1663E08CE3FC
:103170000E94CF168FEF8093080120E045E068E0C1
:1031800071E08BE20E94881620E045E068E071E083
:103190008AE20E94881620E045E068E071E080E362
:1031A0000E94881682EE0E94ED1681EE0E94ED16B6
:1031B00060E787E20E94CF1682E093E09F938F93AF
:1031C0000E94F31680910A03806180930A03809124
:1031D00057038E7F80935703809154030F900F9075
:1031E0008F3F71F00E94CB1581110AC00CC08EEE8A
:1031F00092E09F938F930E94F3160F900F9003C05D
:1032000080E091E002C08DE091E0CF910C94221615
:1032100084EE92E09F938F930E94F316EAE0F3E02E
:103220008081877F8F7E8083109206031092070330
:1032300010920803109209030F900F9044E050E0A1
:1032400060E070E084E593E00C94892A1F920F926D
:103250000FB60F9211240F900FBE0F901F9018956C
:1032600008953FB7F8948091E4059091E505A09109
:10327000E605B091E70526B5A89B05C02F3F19F0DC
:103280000196A11DB11D3FBFBA2FA92F982F8827E6
:10329000820F911DA11DB11DBC01CD0143E0660F40
:1032A000771F881F991F4A95D1F708952FB7F89473
:1032B0006091E0057091E1058091E2059091E30550
:1032C0002FBF08951F920F920FB60F9211242F93C4
:1032D0003F938F939F93AF93BF938091E00590911D
:1032E000E105A091E205B091E3053091DF0526E00C
:1032F000230F2D3720F40296A11DB11D05C029E82A
:10330000230F0396A11DB11D2093DF058093E005D7
:103310009093E105A093E205B093E3058091E40565
:103320009091E505A091E605B091E7050196A11DF4
:10333000B11D8093E4059093E505A093E605B09355
:10334000E705BF91AF919F918F913F912F910F9082
:103350000FBE0F901F9018951F920F920FB60F92ED
:1033600011242F933F934F935F936F937F938F938A
:103370009F93AF93BF93EF93FF93E0912201F0915E
:1033800023010995FF91EF91BF91AF919F918F918B
:103390007F916F915F914F913F912F910F900FBE51
:1033A0000F901F9018951F920F920FB60F92112435
:1033B0002F933F934F935F936F937F938F939F933D
:1033C000AF93BF93EF93FF93E0912001F091210120
:1033D0000995FF91EF91BF91AF919F918F917F914F
:1033E0006F915F914F913F912F910F900FBE0F9072
:1033F0001F9018951F920F920FB60F9211242F93C2
:103400003F934F935F936F937F938F939F93AF936C
:10341000BF93CF93DF93EF93FF932091F60330E0B8
:10342000F901E256FE4F8491F901E657FE4FD4911F
:10343000F901EA58FE4FC491CC2379F081110E9422
:103440001710EC2FF0E0EE0FFF1FE05FFA4FA59191
:10345000B491EC91ED2381E009F480E02091FA032E
:103460003091FB032F5F3F4F3093FB032093FA0310
:103470009091F903953618F096E09093F5039091AA
:10348000F5039430C9F128F4923069F09330D1F00B
:103490005EC0953009F451C0963009F058C091E0F3
:1034A0009093C60451C0811152C02091FA0330910B
:1034B000FB032436310508F442C01092C604109272
:1034C000F9031CC0813009F042C0E091F90391E09A
:1034D0009E0F9093F903F0E02091FA033091FB03E3
:1034E000EE0FFF1FEB50FC4F308727831092FB033A
:1034F0001092FA0394E029C0811117C0E091F903FA
:1035000091E09E0F9093F903F0E02091FA0330913F
:10351000FB03EE0FFF1FEB50FC4F30872783109209
:10352000FB031092FA0393E010C02091FA0330914C
:10353000FB032536310558F007C0811108C01092F1
:10354000FB031092FA0303C095E09093F50390916A
:10355000F8039923B9F081110AC08091F7038823F9
:1035600021F08091F70361E009C02D9A0BC0809192
:10357000F703882331F08091F70360E00E94401048
:1035800001C02D98FF91EF91DF91CF91BF91AF9145
:103590009F918F917F916F915F914F913F912F916B
:1035A0000F900FBE0F901F901895CF92DF92EF9261
:1035B000FF92CF93DF93EC01072E000C880B990B41
:1035C0000E946C296B017C0120E030E040E45FE365
:1035D0000E94CB2920E030E048E452E40E94B32B63
:1035E0000E94252CC617D707D4F020E030E040EA2F
:1035F0005FE3C701B6010E94CB2920E030E048E438
:1036000052E40E94B32B20E030E040E85FE30E94E8
:10361000472B0E94252C21E06C177D070CF420E03D
:10362000822F90E0DF91CF91FF90EF90DF90CF90CD
:1036300008952F923F924F925F926F927F928F9256
:103640009F92AF92BF92CF92DF92EF92FF920F9331
:103650001F93CF93DF9300D01F92CDB7DEB726E044
:10366000E22E36ED432E34E0532E42E3242E44E086
:10367000342E5EE4A52E54E0B52E66E6862E64E078
:10368000962E21E041E060E070E087E10E9488161C
:1036900080FD39C2EA94EE2009F435C221E041E010
:1036A00060E070E080E60E948816082F813220F0EA
:1036B00082EE0E94ED1600E021E0402F6BEB75E0FA
:1036C00081E60E94881660E487E20E94CF1680910E
:1036D000BE05F82EF694F694F69429E12F1510F411
:1036E00099E1F92E82FD04C037E03F0D398302C015
:1036F00080E289831091BF0517709091C0059A836D
:103700002091BC052B837090BB056090BD051330E4
:1037100011F4913129F08BEB95E00E94570D02C016
:103720008AE392E0CF2CD12C9F938F938091BE059A
:1037300082FB882780F91F928F931F92FF928091BE
:10374000BF058295869587701F928F931F923A814D
:103750003F931F921F938091C1051F928F931F92D9
:103760006F921F927F921F928B818F935F924F92E5
:103770000E94F3160FB6F894DEBF0FBECDBF39819D
:10378000301739F01F923F931F920F9381EC94E012
:103790000DC02091BE05822F8370823091F01F9260
:1037A00092E09F931F928F938BEA94E09F938F9365
:1037B0000E94F3160F900F900F900F900F900F90A4
:1037C00060CF80910B03806880930B03809154033A
:1037D000681254C0822F8695869586958A3108F0A6
:1037E00089E138E0839FC00111242770282B2093A2
:1037F000BE05F601E554FA4F17828091BF0583FF9D
:1038000022C08AE994E09F938F930E94F31681E28D
:10381000EBEBF5E0AAE9B5E001900D928A95E1F7AE
:1038200080919E05877F806180939E0580915403DF
:1038300080939B058B8180939C058AE995E00E948B
:1038400015150F900F909091BF0594FD0AC013308D
:1038500081F48091C00521EF280F233008F052C079
:1038600010CF8FEE93E09F938F930E94F3160F90EB
:103870000F908BEB95E00E94A81203CF3FEF6312ED
:1038800038C083EE93E09F938F930E94F3160F90BE
:103890000F90133049F580910A0382FF04C03A81EA
:1038A000373009F4EECE8A81883009F4EACE8431CB
:1038B00009F0E7CE809155037812E3CE0E945619A5
:1038C0007370882799270E940A1190915503998354
:1038D00025E143E06FEF8B810E94480D69810E94D2
:1038E00055120E941314CDCE809155037812C9CE83
:1038F000C0CF2CEC33E03F932F930E94F3160F9030
:103900000F90BFCE2A81243099F48091C105909107
:103910001F01891711F08F3F39F48BEB95E00E945E
:1039200097120E94CB15ADCE82E894E09F935EC0C3
:103930002A81283039F530910A03398330FF1FC0BE
:103940008BEB95E00E9497128F3F09F49ACE8F5F20
:103950008F3F09F496CE90915603891708F091CEC7
:10396000998191FD8ECE809356032B812093550330
:103970001F928F931F922F939F928F9219CFBF9276
:10398000AF92BBCF3A813831C9F48BEB95E00E94FE
:1039900097121F928F931F928B818F933F922F923A
:1039A0000E94F31629E143E06FEF8B810E94480DDE
:1039B00061E00E9455120E941314FCCE2A81293125
:1039C000B9F480910A0383FF0EC0877F80930A03B6
:1039D0008BEB95E00E94971280930C031F928F93BC
:1039E00089E194E02AC08CEF93E09F938F9385CF79
:1039F0002091BC05211171C08D3059F498E088E107
:103A00000FB6F894A895809360000FBE9093600065
:103A1000FFCF8B31D9F48BEB95E00E94971291E0A8
:103A2000811101C090E08091200390FB80F9809388
:103A300020031F929F9387EB93E09F938F930E94A5
:103A4000F3160F900F900F900F901BCE863099F4C5
:103A50009091C20581E0992319F09D3409F080E02E
:103A600080931F0341E050E063E071E08FE193E059
:103A70000E94A12A06CE833119F40E94661501CE58
:103A8000823119F40E94630EFCCD813001F520E0F3
:103A900030E0232B09F4F5CD9295969597709530EB
:103AA00049F46091C2057091C3058091C40590915D
:103AB000C5050AC0911105C082EC95E00E94C023A3
:103AC00003C060E070E0CB010E940000DACD8A30D4
:103AD00009F4D7CD8C3121F4D4CD8A3109F4D1CD7C
:103AE0003A813E3109F4CDCD3A813D3109F0C1CE64
:103AF0002FE143E06FEF80E00E94480D60E07FEF30
:103B00000E944812EECE0F900F900F90DF91CF9150
:103B10001F910F91FF90EF90DF90CF90BF90AF90EB
:103B20009F908F907F906F905F904F903F902F90DD
:103B30000895EF92FF920F931F93CF93DF93162F69
:103B4000E0911E01282F3E2F3203C001112424E6EC
:103B500030E0B9010E945B2C7B015E2F5103C00154
:103B60001124B9010E945B2C8B015E2F5403C0010C
:103B70001124B9010E945B2C8091DE0581110DC0DA
:103B800060E070E086E00E94AB1060E070E085E0ED
:103B90000E94AB1060E070E03BC080911D011127D6
:103BA000FF24EB01DD27833081F050F4813009F1EF
:103BB000823029F5B70186E00E94AB10BE010AC031
:103BC000843069F08530A9F01AC0BE0186E00E94F9
:103BD000AB10B70185E00E94AB10B80119C0BE015F
:103BE00086E00E94AB10B80185E00E94AB10B701DF
:103BF0000FC0B80186E00E94AB10B70105C0B70145
:103C000086E00E94AB10B80185E00E94AB10BE01B7
:103C100089E0DF91CF911F910F91FF90EF900C946D
:103C2000AB10CF92DF92EF92FF920F931F93CF933F
:103C3000DF93CDB7DEB727970FB6F894DEBF0FBE80
:103C4000CDBFF82E162FE42ED22E8093F005609370
:103C5000EF054093EE050E94991DDD2071F00E9452
:103C600056196093EA057093EB058093EC059093E9
:103C7000ED0583EB92E00E94200E002329F1809154
:103C8000EE051F928F938091EF051F928F93809185
:103C9000F0051F928F9386E192E09F938F93CE0160
:103CA00001966C019F938F930E94AA2DB60188E51F
:103CB00095E00E946112FC0112820E94A60E0FB6CE
:103CC000F894DEBF0FBECDBF82EC92E00E94200EC2
:103CD0006F2D70E080E090E040E10E94220E612FA5
:103CE00070E080E090E040E10E94220E60E170E030
:103CF0008E2D0E94F10E27960FB6F894DEBF0FBEF0
:103D0000CDBFDF91CF911F910F91FF90EF90DF908A
:103D1000CF900895CF93C42F2091290130912A018B
:103D20002817390701F1181619063CF4893823E1E0
:103D300092072CF088E893E102C081E090E0909334
:103D40002A0180932901662371F00E94561960931D
:103D5000EA057093EB058093EC059093ED0583EBFA
:103D600092E00E94200ECC2361F0609129017091B5
:103D70002A0185EF94E00E944812FC0112820E9401
:103D8000A60E8AEC92E00E94200E8091290190916B
:103D90002A01CF910C94BF0ECF93DF93D62FC42F5F
:103DA00020911E01022E000C330B2817390729F130
:103DB0001816190634F4853691052CF084E690E047
:103DC00002C081E090E080931E014091EE05609179
:103DD000EF058091F0050E94991DDD2371F00E948E
:103DE00056196093EA057093EB058093EC05909368
:103DF000ED0583EB92E00E94200ECC2369F06091E8
:103E00001E01062E000C770B84ED94E00E944812F0
:103E1000FC0112820E94A60E86ED92E00E94200E06
:103E200080911E01082E000C990BDF91CF910C940C
:103E3000BF0ECF93C42F909128019817A9F084301A
:103E400008F080E080932801662371F00E945619E3
:103E50006093EA057093EB058093EC059093ED0574
:103E600083EB92E00E94200ECC2351F06091280158
:103E700086E195E00E945512FC0112820E94A60E76
:103E800083EE92E00E94200E6AE070E080912801AB
:103E9000CF910C94F10ECF93DF93D62FC42F909136
:103EA000DE059817D1F08093DE054091EE05609114
:103EB000EF058091F0050E94991DDD2371F00E94AD
:103EC00056196093EA057093EB058093EC05909387
:103ED000ED0583EB92E00E94200ECC23B1F090918F
:103EE000DE0580917C058770886080937C058091D9
:103EF0007D058F71806280937D059093800510927F
:103F00007B0589E795E00E94A60E81EF92E00E9472
:103F1000200E8091DE0590E0DF91CF910C94BF0ED2
:103F2000CF93DF93E8E5F3E01382128288EE93E00B
:103F3000A0E0B0E084839583A683B78386EC91E00C
:103F40009183808385EC90E09587848784EC90E072
:103F50009787868780EC90E0918B808B81EC90E056
:103F6000938B828B82EC90E0958B848B86EC90E037
:103F7000978B868B118E128E138E148E8BEB95E0A1
:103F80000E94FE138AE995E00E94FE1389E795E0FE
:103F90000E94FE13E9E7F5E082E08683858388E5E9
:103FA00095E00E94FE13E8E5F5E085E0868388E26F
:103FB000858387E395E00E94FE13E7E3F5E086E062
:103FC0008683D8E1D58386E195E00E94FE13E6E181
:103FD000F5E0C3E0C683D58385EF94E00E94FE132D
:103FE000E5EFF4E0C68389E1858384ED94E00E94E7
:103FF000FE13E4EDF4E084E0868397E19583E5EF3A
:10400000F3E0818313828DEC94E00E94110D87EC24
:1040100094E0DF91CF910C94110D8091C7049091A1
:10402000C8040E9403228091CD049091CE040C9488
:104030000322789484B5826084BD84B5816084BD98
:1040400085B5826085BD85B5816085BD80916E0036
:10405000816080936E001092810080918100826067
:1040600080938100809181008160809381008091A4
:1040700080008160809380008091B1008460809393
:10408000B1008091B00081608093B00080917A008F
:10409000846080937A0080917A00826080937A00B5
:1040A00080917A008E7F80937A0080917A00806878
:1040B00080937A001092C100A89580E090E0892B4F
:1040C00011F00E940000E0916803F091690382E022
:1040D0008083E0916403F09165031082E0916603B0
:1040E000F091670388E0808310927003E0916C0385
:1040F000F0916D0386E08083E0916A03F0916B0399
:10410000808180618083E0916A03F0916B038081FC
:1041100088608083E0916A03F0916B0380818068FE
:104120008083E0916A03F0916B0380818F7D8083AF
:10413000C0E1D0E0F12CFE01F595E795EF5DFA4F77
:10414000E491C0FFE295EF70E83008F098C0F0E02D
:10415000EF5DFA4FF4906F2D88E593E00E94980C84
:104160002196C23FD10539F78AE195E00E94050EFC
:1041700087EE91E00E94F30D8CED95E09F938F9375
:104180000E94F316809120038D7F809320030F906F
:104190000F908FEC95E09F938F930E94F3160E94EF
:1041A0007C110F900F9041E050E063E071E08FE1EF
:1041B00093E00E94892A6FEF81E090E00E94B12A8B
:1041C00080910B038F7880930B0310920103109260
:1041D000000384E291E00E9422168DE995E190931C
:1041E000E9058093E8051F921F921F921F928AE9AA
:1041F00095E09F938F930E94F3160E9456190F909B
:104200000F900F900F900F900F900E9456190E94E0
:10421000041680910A0384FD0E94191BA8958091C1
:104220000A0382FFF2CF82EC95E09F938F930E9466
:10423000F3160E9444110F900F9090910A0392FB85
:10424000882780F992FD0E94B9161F928F938AEAFF
:1042500095E09F938F930E94F316A8950F900F906F
:104260000F900F90A8950E94041680910A0384FD78
:104270000E94191B0E942F030E94070DF3CF1BEF12
:104280001E0F00E06F2D88E593E00E94980C0F5FF1
:104290000117C0F365CFEF920F931F93CF93DF9376
:1042A000E80147FD02C034E001C034E1042E000CF7
:1042B000550B57FF03C0519541955109E32E022F2D
:1042C000242FAE010E947026CE01DF91CF911F9165
:1042D0000F91EF9008950F931F93CF93DF93823048
:1042E000910510F482E090E0E091F305F091F4057F
:1042F00020E030E0A0E0B0E0309719F1408151813A
:104300000281138148175907C8F08417950769F48B
:10431000109731F012960C93129713961C9327C0A6
:104320000093F3051093F40522C02115310519F00F
:104330004217530718F49A01BD01EF01DF01F8019C
:10434000DBCF21153105F9F0281B390B243031055D
:1043500080F48A819B816115710521F0FB019383B3
:10436000828304C09093F4058093F305FE01329696
:1043700044C0FE01E20FF31F819391932250310953
:10438000398328833AC02091F1053091F205232B1F
:1043900041F420912D0130912E013093F2052093AC
:1043A000F10520912B0130912C012115310541F4AB
:1043B0002DB73EB740912F0150913001241B350B92
:1043C000E091F105F091F205E217F307A0F42E1B3E
:1043D0003F0B2817390778F0AC014E5F5F4F241769
:1043E000350748F04E0F5F1F5093F2054093F105DB
:1043F0008193919302C0E0E0F0E0CF01DF91CF9193
:104400001F910F910895CF93DF93009709F481C016
:10441000FC01329713821282A091F305B091F4054A
:10442000109781F420813181820F931F2091F10533
:104430003091F2052817390751F5F093F205E09312
:10444000F10567C0ED0120E030E0CE17DF0740F452
:104450004A815B819E0141155105F1F0EA01F5CFDA
:10446000D383C28340815181840F951FC817D90718
:1044700059F488819981840F951F029691838083D6
:104480008A819B81938382832115310529F4F093DE
:10449000F405E093F3053DC0E901FB83EA8349910C
:1044A0005991C40FD51FEC17FD0761F480819181EC
:1044B000840F951F0296E9019983888382819381F5
:1044C0009B838A83E0E0F0E012968D919C91139794
:1044D000009719F0FD01DC01F7CF8D919C911197A8
:1044E0009D012E5F3F4F820F931F2091F105309168
:1044F000F2052817390769F4309729F41092F4056A
:104500001092F30502C013821282B093F205A093B9
:10451000F105DF91CF910895A0E0B0E0E2E9F2E289
:104520000C94012B5C016B017A016115710519F086
:10453000FB0191838083E114F10429F0C701029704
:10454000839708F0E5C0E5012196F5011081812FE0
:1045500090E00E94E723892B11F05E01F4CF1D3219
:1045600029F42196F501118101E007C01B3221F4E5
:10457000E5012296F501118100E0E114F10409F151
:10458000F0E1EF16F10429F43FC010E3E114F10467
:1045900021F128E0E216F10401F154F4E2E0EE1614
:1045A000F10421F5812C912CA12CB0E4BB2E3EC04E
:1045B000FAE0EF16F10439F020E1E216F104B1F46B
:1045C00030C0103319F1FAE0EF2EF12CACEC8A2E4A
:1045D000982CA82CACE0BA2E29C078E0E72EF12C5C
:1045E000812C912CA12CE0E1BE2E20C060E070E077
:1045F00080E090E897010F2C000C440B550B0E94B3
:10460000D32A49015A0112C0103359F488818F7D91
:10461000883509F0BACF19812296026080E1E82E30
:10462000F12C812C912CA12C68E0B62E40E060E0AA
:1046300070E0CB0127010F2C000C66087708FE0103
:1046400050ED352E310E29E0231570F42FEB210F9C
:104650002A3118F439EC332E06C02FE9210F2A3104
:1046600018F529EA322E310E232D30E02E153F05A4
:10467000DCF447FD16C086169706A806B90670F04A
:10468000A30192010E94C32A630D711D811D911D1A
:1046900061307105810520E8920710F04FEF01C0ED
:1046A00041E021961081CBCF202F2170C114D1047D
:1046B00071F0442329F02197F601D183C08307C00C
:1046C00001FF19C02297F601D183C08314C047FFB0
:1046D00012C0222329F060E070E080E090E804C07E
:1046E0006FEF7FEF8FEF9FE722E230E03093F60528
:1046F0002093F50509C0222381F09095809570954F
:1047000061957F4F8F4F9F4F462F372F282F12C015
:1047100040E030E020E090E00DC097FFF5CF82E26E
:1047200090E09093F6058093F5056FEF7FEF8FEFA4
:104730009FE7EACF642F732F822FCDB7DEB7E1E179
:104740000C941D2BFC0188279927E8942191203295
:10475000E9F3293010F02E30C8F32B3241F02D321E
:1047600039F4689404C00E941F24820F911D219186
:1047700020532A30C0F31EF4909581959F4F0895E1
:104780001F93FC0199278827BC01E89411911032EE
:10479000E9F3193010F01E30C8F31B3251F01D320E
:1047A00049F4689406C00E940A24610F711D811D9E
:1047B000911D119110531A30B0F33EF490958095ED
:1047C000709561957F4F8F4F9F4F1F910895911165
:1047D0000C94A228803219F089508550C8F70895AA
:1047E000BB274A3031F4992322F4BDE2909581959C
:1047F0009F4F0C944A24BB272A3051F4992342F44A
:10480000BDE290958095709561957F4F8F4F9F4F3A
:104810000C942824592F482F372F262F660F771FE7
:10482000881F991F660F771F881F991F620F731FBC
:10483000841F951F660F771F881F991F08957AE0C0
:10484000979F902D879F802D910D11240895BB2750
:10485000FA01A62F6217710581059105330B30FB14
:1048600066F0AA27660F771F881F991FAA1FA21735
:1048700010F0A21B63953850A9F7A05DAA3308F089
:10488000A95DA19336F7B111B1931082CA010C94BE
:10489000BB28BB27FB015527AA27880F991FAA1FF2
:1048A000A41710F0A41B83955051B9F7A05DAA334B
:1048B00008F0A95DA193009779F7B111B193119216
:1048C000CB010C94BB28AEE0B0E0E9E6F4E20C9436
:1048D0000E2B8C01FA018EE08C831A83098377FFFB
:1048E00002C060E070E8CB0101979E838D83A9012F
:1048F000BF01CE0101960E948F244D815E8157FD3C
:104900000AC02F813885421753070CF49A01F80129
:10491000E20FF31F10822E96E4E00C942A2BABE0FA
:10492000B0E0E5E9F4E20C94002B6C017B018A0114
:10493000FC0117821682838181FFCCC1CE010196D2
:104940003C01F6019381F70193FD859193FF8191DD
:104950007F01882309F4BAC1853239F493FD85912A
:1049600093FF81917F01853229F4B60190E00E9486
:10497000CB28E7CF912C212C312CFFE1F315D8F077
:104980008B3279F038F4803279F08332A1F4232D20
:1049900020611DC08D3261F0803369F4232D2160C8
:1049A00016C0832D8260382EE32DE4603E2E2AC08F
:1049B000F32DF8601DC037FC2DC020ED280F2A30E4
:1049C00040F08E32B9F436FC81C1232D2064322EA2
:1049D00019C036FE06C08AE0989E200D1124922E42
:1049E00011C0EAE02E9E200D1124222EF32DF0623C
:1049F0003F2E08C08C3621F4832D8068382E02C0EB
:104A0000883641F4F70193FD859193FF81917F01F1
:104A10008111B3CF982F9F7D9554933028F40C5F6C
:104A20001F4F9FE399830DC0833631F0833771F0B8
:104A3000833509F059C021C0F801808189830E5F58
:104A40001F4F88248394912C530113C02801F2E056
:104A50004F0E511CF801A080B18036FE03C0692DB5
:104A600070E002C06FEF7FEFC5010E94B0284C01DB
:104A70008201F32DFF773F2E16C0280122E0420E5F
:104A8000511CF801A080B18036FE03C0692D70E092
:104A900002C06FEF7FEFC5010E94A5284C01F32DE6
:104AA000F0683F2E820133FC1BC0822D90E08816F7
:104AB0009906B0F4B60180E290E00E94CB282A94D7
:104AC000F4CFF50137FC859137FE81915F01B60186
:104AD00090E00E94CB2821102A9421E0821A9108AC
:104AE0008114910471F7E8C0843611F0893641F5DC
:104AF000F80137FE07C060817181828193810C5F6C
:104B00001F4F08C060817181072E000C880B990B24
:104B10000E5F1F4FF32DFF763F2E97FF09C0909534
:104B20008095709561957F4F8F4F9F4FF0683F2E16
:104B30002AE030E0A3010E940729882E861845C08C
:104B4000853731F4232D2F7EB22E2AE030E025C0A8
:104B5000932D997FB92E8F36C1F018F4883579F0EE
:104B6000B5C0803719F0883721F0B0C0E92FE06177
:104B7000BE2EB4FE0DC0FB2DF460BF2E09C034FE66
:104B80000AC0292F2660B22E06C028E030E005C0FA
:104B900020E130E002C020E132E0F801B7FE07C0BA
:104BA00060817181828193810C5F1F4F06C060819B
:104BB000718180E090E00E5F1F4FA3010E940729E2
:104BC000882E8618FB2DFF773F2E36FE0DC0232D35
:104BD0002E7FA22E891458F434FE0BC032FC09C07B
:104BE000832D8E7EA82E05C0B82CA32C03C0B82C14
:104BF00001C0B92CA4FE0FC0FE01E80DF11D80819B
:104C0000803321F49A2D997EA92E09C0A2FE06C0F8
:104C1000B394B39404C08A2D867809F0B394A3FCAE
:104C200011C0A0FE06C0B21488F4280C922C9B1868
:104C30000EC0B21460F4B60180E290E00E94CB286E
:104C4000B394F7CFB21418F42B1802C0982C212C6F
:104C5000A4FE10C0B60180E390E00E94CB28A2FE23
:104C600017C0A1FC03C088E790E002C088E590E08F
:104C7000B6010CC08A2D867859F0A1FE02C08BE2E5
:104C800001C080E2A7FC8DE2B60190E00E94CB2833
:104C9000891438F4B60180E390E00E94CB289A94FE
:104CA000F7CF8A94F301E80DF11D8081B60190E001
:104CB0000E94CB288110F5CF222009F442CEB60104
:104CC00080E290E00E94CB282A94F6CFF6018681FC
:104CD000978102C08FEF9FEF2B96E2E10C941C2B83
:104CE000A9E0B0E0E6E7F6E20C94062B6A01122F89
:104CF000B02E2BE3201720F0FF24F394F00E02C017
:104D00002CE3F22E0F2D27E0AE014F5F5F4F0E9484
:104D1000CA27BC014981842F8970813031F0E1FCC0
:104D200006C0E0FE06C090E205C09DE203C09BE223
:104D300001C090E05E2D507143FF3CC0911102C054
:104D400083E001C084E0811718F4212F281B01C0E3
:104D500020E051110BC0F601822F30E2882319F0B8
:104D600031938150FBCFC20ED11C20E0992329F052
:104D7000D6019C93F60131966F01C6010396E2FEBF
:104D80000AC03EE4D6013C9341E411964C9311973E
:104D900012963C9306C03EE6F601308341E641831D
:104DA0003283FC01322F40E2332309F442C04193A5
:104DB0003150FACF42FF44C0911102C083E001C0DC
:104DC00084E0811718F4212F281B01C020E0511125
:104DD0000BC0F601822F30E2882319F03193815005
:104DE000FBCFC20ED11C20E0992329F0D6019C9361
:104DF000F60131966F01C6010396E2FE0BC039E45D
:104E0000D6013C933EE411963C93119736E41296FA
:104E10003C9307C039E6F60130833EE6318336E63F
:104E20003283FC01322F40E2332319F04193315099
:104E3000FBCFFC01E20FF11D10828EEF9FEFA6C0A9
:104E400021E030E0911102C020E030E01616170694
:104E50001CF4FB01319602C0E1E0F0E02E0F3F1F91
:104E6000BB2021F0EB2DF0E0319602C0E0E0F0E055
:104E70002E0F3F1FE12FF0E02E173F071CF4121BEF
:104E8000212F01C020E08E2D887159F4F601822F68
:104E900030E2882319F031938150FBCFC20ED11C30
:104EA00020E0992329F0D6019C93F60131966F01F9
:104EB00051110BC0F601822F90E3882319F09193D2
:104EC0008150FBCFC20ED11C20E00F2D060F9A811E
:104ED000342F307144FF03C0913309F40150101690
:104EE00024F4093018F008E001C001E0AB0177FFBD
:104EF00002C040E050E0FB01E41BF50BA1E0B0E094
:104F0000AC0FBD1FEA0FFB1F8EE2A82E4B01801ACB
:104F100091080B2D10E01195019511094F3FBFEF3E
:104F20005B0721F4D601AC9211966D0164177507E9
:104F30002CF08416950614F4818101C080E3415061
:104F400051093196D60111967D014017510724F081
:104F5000D6018C936701E2CF6417750739F4963355
:104F600020F4953319F4311101C081E3F6018083F7
:104F7000F701822F90E2882319F091938150FBCFA3
:104F8000F701E20FF11D108280E090E02996ECE03D
:104F90000C94222B283008F027E03327DA01990FF0
:104FA000311D87FD916000966105710539F432600D
:104FB0002E5F3D9330E32A95E1F708959F3F30F04F
:104FC00080387105610509F03C5F3C5F3D9391308D
:104FD00008F08068911DDF93CF931F930F93FF928A
:104FE000EF92192F987F9695E92F96959695E90F50
:104FF000FF27EE53FF4F99273327EE24FF24A70105
:10500000E70105900894079428F4360FE71EF81E70
:10501000491F511D660F771F881F991F0694A1F71E
:105020000590079428F4E70EF81E491F561FC11D6E
:10503000770F881F991F661F0694A1F705900794A4
:1050400028F4F80E491F561FC71FD11D880F991F3E
:10505000661F771F0694A1F70590079420F4490F67
:10506000561FC71FD81F990F661F771F881F0694EA
:10507000A9F784911095177041F0D695C79557956B
:105080004795F794E7941A95C1F7E8E6F0E068943D
:105090001590159135916591959105907FE27395E5
:1050A000E118F10A430B560BC90BD009C0F7E10C0C
:1050B000F11E431F561FC91FD01D7EF4703311F41B
:1050C0008A95E6CFE894015030F0080F0AF40027E3
:1050D000021708F4202F2395022F7A3328F079E362
:1050E0007D932A95E9F710C07D932A9589F6069459
:1050F00097956795379517951794E118F10A430B23
:10510000560BC90BD00998F023957E9173957A338D
:1051100008F070E37C932013B8F77E9170617D9363
:1051200030F0839571E37D9370E32A95E1F71124C4
:10513000EF90FF900F911F91CF91DF91992787FDFD
:1051400090950895992788270895FC01059061504E
:1051500070400110D8F7809590958E0F9F1F08958D
:10516000FC016150704001900110D8F78095909536
:105170008E0F9F1F0895DC01FC01672F719177232B
:10518000E1F7329704C07C916D9370836291AE1702
:10519000BF07C8F308950F931F93CF93DF93FB01CD
:1051A000238121FD03C08FEF9FEF2CC022FF16C08B
:1051B00046815781248135814217530744F4A081E9
:1051C000B1819D012F5F3F4F318320838C932681D6
:1051D00037812F5F3F4F3783268314C08B01EC014B
:1051E000FB010084F185E02D0995892BE1F6D801BA
:1051F00016968D919C911797019617969C938E9376
:105200001697CE01DF91CF911F910F910895FA016A
:10521000AA27283051F1203181F1E8946F936E7FF5
:105220006E5F7F4F8F4F9F4FAF4FB1E03ED0B4E0E6
:105230003CD0670F781F891F9A1FA11D680F791F27
:105240008A1F911DA11D6A0F711D811D911DA11D38
:1052500020D009F468943F912AE0269F1124301948
:10526000305D3193DEF6CF010895462F4770405DE3
:105270004193B3E00FD0C9F7F6CF462F4F70405D92
:105280004A3318F0495D31FD4052419302D0A9F7ED
:10529000EACFB4E0A6959795879577956795BA95E7
:1052A000C9F700976105710508959B01AC010A2EAD
:1052B00006945795479537952795BA95C9F7620F84
:1052C000731F841F951FA01D08950E94A72908F42D
:1052D00081E00895E89409C097FB3EF4909580958D
:1052E000709561957F4F8F4F9F4F9923A9F0F92FAC
:1052F00096E9BB279395F695879577956795B7952A
:10530000F111F8CFFAF4BB0F11F460FF1BC06F5F0F
:105310007F4F8F4F9F4F16C0882311F096E911C021
:10532000772321F09EE8872F762F05C0662371F042
:1053300096E8862F70E060E02AF09A95660F771F56
:10534000881FDAF7880F9695879597F90895990F32
:105350000008550FAA0BE0E8FEEF16161706E8073F
:10536000F907C0F012161306E407F50798F0621B60
:10537000730B840B950B39F40A2661F0232B242B35
:10538000252B21F408950A2609F4A140A6958FEF54
:10539000811D811D08950E94DE290C944F2A0E94D0
:1053A000412A38F00E94482A20F0952311F00C94ED
:1053B000382A0C943E2A11240C94832A0E94602AD5
:1053C00070F3959FC1F3950F50E0551F629FF00158
:1053D000729FBB27F00DB11D639FAA27F00DB11D71
:1053E000AA1F649F6627B00DA11D661F829F2227FA
:1053F000B00DA11D621F739FB00DA11D621F839F81
:10540000A00D611D221F749F3327A00D611D231F56
:10541000849F600D211D822F762F6A2F11249F57A4
:1054200050409AF0F1F088234AF0EE0FFF1FBB1FA7
:10543000661F771F881F91505040A9F79E3F510566
:1054400080F00C94382A0C94832A5F3FE4F3983E52
:10545000D4F3869577956795B795F795E7959F5F10
:10546000C1F7FE2B880F911D9695879597F90895A2
:1054700097F99F6780E870E060E008959FEF80EC07
:10548000089500240A9416161706180609060895AA
:1054900000240A9412161306140605060895092E10
:1054A0000394000C11F4882352F0BB0F40F4BF2B7F
:1054B00011F460FF04C06F5F7F4F8F4F9F4F0895BF
:1054C00057FD9058440F551F59F05F3F71F04795B5
:1054D000880F97FB991F61F09F3F79F0879508959A
:1054E000121613061406551FF2CF4695F1DF08C0B9
:1054F000161617061806991FF1CF869571056105D6
:1055000008940895E894BB2766277727CB0197F97D
:105510000895DC01CB01FC01F999FECF06C0F2BD74
:10552000E1BDF89A319600B40D9241505040B8F761
:105530000895F999FECF92BD81BDF89A992780B55B
:105540000895DC01A40FB51F4150504048F0CB0135
:10555000840F951F2E910E94B22A41505040D0F7DF
:105560000895262FF999FECF92BD81BDF89A019733
:1055700000B4021639F01FBA20BD0FB6F894FA9A9B
:10558000F99A0FBE0895DB018F939F930E94F52A2D
:10559000BF91AF91A29F800D911DA39F900DB29FCF
:1055A000900D11240895A1E21A2EAA1BBB1BFD0128
:1055B0000DC0AA1FBB1FEE1FFF1FA217B307E407F2
:1055C000F50720F0A21BB30BE40BF50B661F771F4A
:1055D000881F991F1A9469F760957095809590952A
:1055E0009B01AC01BD01CF0108950E94372BA59FFF
:1055F000900DB49F900DA49F800D911D11240895CE
:105600002F923F924F925F926F927F928F929F92D2
:10561000AF92BF92CF92DF92EF92FF920F931F93C0
:10562000CF93DF93CDB7DEB7CA1BDB0B0FB6F89471
:10563000DEBF0FBECDBF09942A88398848885F84B1
:105640006E847D848C849B84AA84B984C884DF8022
:10565000EE80FD800C811B81AA81B981CE0FD11D06
:105660000FB6F894DEBF0FBECDBFED010895A29F27
:10567000B001B39FC001A39F700D811D1124911D26
:10568000B29F700D811D1124911D08955058BB27A4
:10569000AA270E945E2B0C944F2A0E94412A38F0C0
:1056A0000E94482A20F039F49F3F19F426F40C9404
:1056B0003E2A0EF4E095E7FB0C94382AE92F0E946D
:1056C000602A58F3BA17620773078407950720F01A
:1056D00079F4A6F50C94822A0EF4E0950B2EBA2FDD
:1056E000A02D0B01B90190010C01CA01A0011124E8
:1056F000FF27591B99F0593F50F4503E68F11A1694
:10570000F040A22F232F342F4427585FF3CF469524
:1057100037952795A795F0405395C9F77EF41F1646
:10572000BA0B620B730B840BBAF09150A1F0FF0F10
:10573000BB1F661F771F881FC2F70EC0BA0F621FFC
:10574000731F841F48F4879577956795B795F795EC
:105750009E3F08F0B0CF9395880F08F09927EE0F81
:105760009795879508950E94C72B0C944F2A0E9405
:10577000482A58F00E94412A40F029F45F3F29F05E
:105780000C94382A51110C94832A0C943E2A0E94BE
:10579000602A68F39923B1F3552391F3951B550BB8
:1057A000BB27AA2762177307840738F09F5F5F4FF4
:1057B000220F331F441FAA1FA9F335D00E2E3AF033
:1057C000E0E832D091505040E695001CCAF72BD04B
:1057D000FE2F29D0660F771F881FBB1F261737079C
:1057E0004807AB07B0E809F0BB0B802DBF01FF27CE
:1057F00093585F4F3AF09E3F510578F00C94382A49
:105800000C94832A5F3FE4F3983ED4F38695779512
:105810006795B795F7959F5FC9F7880F911D969586
:10582000879597F90895E1E0660F771F881FBB1FE2
:10583000621773078407BA0720F0621B730B840B8F
:10584000BA0BEE1F88F7E09508950E942C2C6894FF
:10585000B1110C94832A08950E94682A88F09F57FA
:1058600098F0B92F9927B751B0F0E1F0660F771F84
:10587000881F991F1AF0BA95C9F714C0B13091F07A
:105880000E94822AB1E008950C94822A672F782F13
:105890008827B85F39F0B93FCCF38695779567953F
:1058A000B395D9F73EF490958095709561957F4FAB
:1058B0008F4F9F4F089597FB072E16F4009407D043
:1058C00077FD09D00E94A62C07FC05D03EF49095E8
:1058D00081959F4F0895709561957F4F08950F931F
:1058E000083090F0982F872F762F652F542F432F55
:1058F000322F22270850F4CF220F331F441F551F89
:10590000661F771F881F991F0A95B2F70F91089598
:1059100097FB10F8169400080F93083098F0085081
:10592000232F342F452F562F672F782F892F902D17
:10593000F4CF0594979587957795679557954795F3
:10594000379527950A95AAF70F910895AA1BBB1BB7
:1059500051E107C0AA1FBB1FA617B70710F0A61B6F
:10596000B70B881F991F5A95A9F780959095BC0190
:10597000CD010895EE0FFF1F0590F491E02D0994DD
:10598000A0E0B0E0E6ECFCE20C94042BEC01009704
:1059900021F4CB010E946B21B4C0FC01E60FF71F7C
:1059A0009C0122503109E217F30708F4A8C0D9017D
:1059B0000D911C91119706171707B0F005301105CE
:1059C00008F49BC0C80104978617970708F495C090
:1059D00002501109061B170B019311936D937C93D1
:1059E000CF010E94032289C05B01A01AB10A4C01B9
:1059F000800E911EA091F305B091F405612C712CDD
:105A0000E12CF12C109709F446C08D919C911197CF
:105A1000A815B905B1F56C0142E0C40ED11CCA1439
:105A2000DB0478F14C018A189B08640142E0C40E43
:105A3000D11C1296BC9012971396AC91B5E0CB1680
:105A4000D10440F0B282A38391828082D9016D9308
:105A50007C9309C00E5F1F4F800F911FF901918346
:105A60008083EB2DFA2FE114F10431F0D701139666
:105A7000FC93EE93129741C0F093F405E093F30585
:105A80003CC06816790608F43C017D0112960D9021
:105A9000BC91A02DB7CF8091F1059091F2058816A9
:105AA0009906E1F466167706C8F480912B0190916F
:105AB0002C01009741F48DB79EB740912F01509172
:105AC0003001841B950BE817F907C8F4F093F20531
:105AD000E093F105F901718360830FC0CB010E944F
